{
  "_format": "hh-sol-artifact-1",
  "contractName": "Bank",
  "sourceName": "contracts/Bank.sol",
  "abi": [
    {
      "inputs": [],
      "stateMutability": "nonpayable",
      "type": "constructor"
    },
    {
      "inputs": [],
      "name": "deposit",
      "outputs": [],
      "stateMutability": "payable",
      "type": "function"
    },
    {
      "inputs": [],
      "name": "getBankBalance",
      "outputs": [
        {
          "internalType": "uint256",
          "name": "",
          "type": "uint256"
        }
      ],
      "stateMutability": "view",
      "type": "function"
    },
    {
      "inputs": [],
      "name": "getCustomerBalance",
      "outputs": [
        {
          "internalType": "uint256",
          "name": "",
          "type": "uint256"
        }
      ],
      "stateMutability": "view",
      "type": "function"
    },
    {
      "inputs": [],
      "name": "name",
      "outputs": [
        {
          "internalType": "string",
          "name": "",
          "type": "string"
        }
      ],
      "stateMutability": "view",
      "type": "function"
    },
    {
      "inputs": [],
      "name": "owner",
      "outputs": [
        {
          "internalType": "address",
          "name": "",
          "type": "address"
        }
      ],
      "stateMutability": "view",
      "type": "function"
    },
    {
      "inputs": [
        {
          "internalType": "string",
          "name": "_name",
          "type": "string"
        }
      ],
      "name": "setBankName",
      "outputs": [],
      "stateMutability": "nonpayable",
      "type": "function"
    },
    {
      "inputs": [
        {
          "internalType": "address payable",
          "name": "_to",
          "type": "address"
        },
        {
          "internalType": "uint256",
          "name": "_amount",
          "type": "uint256"
        }
      ],
      "name": "withdraw",
      "outputs": [],
      "stateMutability": "nonpayable",
      "type": "function"
    }
  ],
  "bytecode": "0x608060405234801561001057600080fd5b50336000806101000a81548173ffffffffffffffffffffffffffffffffffffffff021916908373ffffffffffffffffffffffffffffffffffffffff160217905550610cbe806100606000396000f3fe6080604052600436106100705760003560e01c80638da5cb5b1161004e5780638da5cb5b146100f4578063a853409a1461011f578063d0e30db01461014a578063f3fef3a31461015457610070565b806306fdde031461007557806370142690146100a05780637b83b50b146100c9575b600080fd5b34801561008157600080fd5b5061008a61017d565b604051610097919061086c565b60405180910390f35b3480156100ac57600080fd5b506100c760048036038101906100c291906106f5565b61020b565b005b3480156100d557600080fd5b506100de6102b3565b6040516100eb919061090e565b60405180910390f35b34801561010057600080fd5b5061010961034a565b6040516101169190610851565b60405180910390f35b34801561012b57600080fd5b5061013461036e565b604051610141919061090e565b60405180910390f35b6101526103b5565b005b34801561016057600080fd5b5061017b600480360381019061017691906106b9565b610451565b005b6001805461018a90610a8c565b80601f01602080910402602001604051908101604052809291908181526020018280546101b690610a8c565b80156102035780601f106101d857610100808354040283529160200191610203565b820191906000526020600020905b8154815290600101906020018083116101e657829003601f168201915b505050505081565b60008054906101000a900473ffffffffffffffffffffffffffffffffffffffff1673ffffffffffffffffffffffffffffffffffffffff163373ffffffffffffffffffffffffffffffffffffffff1614610299576040517f08c379a0000000000000000000000000000000000000000000000000000000008152600401610290906108ae565b60405180910390fd5b80600190805190602001906102af929190610584565b5050565b60008060009054906101000a900473ffffffffffffffffffffffffffffffffffffffff1673ffffffffffffffffffffffffffffffffffffffff163373ffffffffffffffffffffffffffffffffffffffff1614610344576040517f08c379a000000000000000000000000000000000000000000000000000000000815260040161033b906108ae565b60405180910390fd5b47905090565b60008054906101000a900473ffffffffffffffffffffffffffffffffffffffff1681565b6000600260003373ffffffffffffffffffffffffffffffffffffffff1673ffffffffffffffffffffffffffffffffffffffff16815260200190815260200160002054905090565b60003414156103f9576040517f08c379a00000000000000000000000000000000000000000000000000000000081526004016103f09061088e565b60405180910390fd5b34600260003373ffffffffffffffffffffffffffffffffffffffff1673ffffffffffffffffffffffffffffffffffffffff168152602001908152602001600020600082825461044891906109a6565b92505081905550565b600260003373ffffffffffffffffffffffffffffffffffffffff1673ffffffffffffffffffffffffffffffffffffffff168152602001908152602001600020548111156104d3576040517f08c379a00000000000000000000000000000000000000000000000000000000081526004016104ca906108ce565b60405180910390fd5b60008273ffffffffffffffffffffffffffffffffffffffff16826040516104f99061083c565b60006040518083038185875af1925050503d8060008114610536576040519150601f19603f3d011682016040523d82523d6000602084013e61053b565b606091505b505090508061057f576040517f08c379a0000000000000000000000000000000000000000000000000000000008152600401610576906108ee565b60405180910390fd5b505050565b82805461059090610a8c565b90600052602060002090601f0160209004810192826105b257600085556105f9565b82601f106105cb57805160ff19168380011785556105f9565b828001600101855582156105f9579182015b828111156105f85782518255916020019190600101906105dd565b5b509050610606919061060a565b5090565b5b8082111561062357600081600090555060010161060b565b5090565b600061063a6106358461094e565b610929565b90508281526020810184848401111561065257600080fd5b61065d848285610a4a565b509392505050565b60008135905061067481610c5a565b92915050565b600082601f83011261068b57600080fd5b813561069b848260208601610627565b91505092915050565b6000813590506106b381610c71565b92915050565b600080604083850312156106cc57600080fd5b60006106da85828601610665565b92505060206106eb858286016106a4565b9150509250929050565b60006020828403121561070757600080fd5b600082013567ffffffffffffffff81111561072157600080fd5b61072d8482850161067a565b91505092915050565b61073f816109fc565b82525050565b60006107508261097f565b61075a8185610995565b935061076a818560208601610a59565b61077381610b7c565b840191505092915050565b600061078b601e83610995565b915061079682610b8d565b602082019050919050565b60006107ae601983610995565b91506107b982610bb6565b602082019050919050565b60006107d160008361098a565b91506107dc82610bdf565b600082019050919050565b60006107f4602783610995565b91506107ff82610be2565b604082019050919050565b6000610817601283610995565b915061082282610c31565b602082019050919050565b61083681610a40565b82525050565b6000610847826107c4565b9150819050919050565b60006020820190506108666000830184610736565b92915050565b600060208201905081810360008301526108868184610745565b905092915050565b600060208201905081810360008301526108a78161077e565b9050919050565b600060208201905081810360008301526108c7816107a1565b9050919050565b600060208201905081810360008301526108e7816107e7565b9050919050565b600060208201905081810360008301526109078161080a565b9050919050565b6000602082019050610923600083018461082d565b92915050565b6000610933610944565b905061093f8282610abe565b919050565b6000604051905090565b600067ffffffffffffffff82111561096957610968610b4d565b5b61097282610b7c565b9050602081019050919050565b600081519050919050565b600081905092915050565b600082825260208201905092915050565b60006109b182610a40565b91506109bc83610a40565b9250827fffffffffffffffffffffffffffffffffffffffffffffffffffffffffffffffff038211156109f1576109f0610aef565b5b828201905092915050565b6000610a0782610a20565b9050919050565b6000610a1982610a20565b9050919050565b600073ffffffffffffffffffffffffffffffffffffffff82169050919050565b6000819050919050565b82818337600083830152505050565b60005b83811015610a77578082015181840152602081019050610a5c565b83811115610a86576000848401525b50505050565b60006002820490506001821680610aa457607f821691505b60208210811415610ab857610ab7610b1e565b5b50919050565b610ac782610b7c565b810181811067ffffffffffffffff82111715610ae657610ae5610b4d565b5b80604052505050565b7f4e487b7100000000000000000000000000000000000000000000000000000000600052601160045260246000fd5b7f4e487b7100000000000000000000000000000000000000000000000000000000600052602260045260246000fd5b7f4e487b7100000000000000000000000000000000000000000000000000000000600052604160045260246000fd5b6000601f19601f8301169050919050565b7f596f75206e65656420736f6d6520616d6f756e74206f66206d6f6e6579210000600082015250565b7f596f7520646f6e27742068617665207065726d697373696f6e00000000000000600082015250565b50565b7f596f7520646f6e2774206861766520656e6f7567682066756e647320746f207760008201527f6974686472617700000000000000000000000000000000000000000000000000602082015250565b7f5769746864726177206973206661696c65640000000000000000000000000000600082015250565b610c6381610a0e565b8114610c6e57600080fd5b50565b610c7a81610a40565b8114610c8557600080fd5b5056fea26469706673582212202cc7237f0e1bfe22e07d8d7c4bbe34f83838fbf29eaa4a6d4e9c691c7bcffe3964736f6c63430008040033",
  "linkReferences": {},
  "deployedLinkReferences": {}
}